{
  "_format": "hh-sol-artifact-1",
  "contractName": "CurveAMM",
  "sourceName": "contracts/CurveAMM.sol",
  "abi": [
    {
      "inputs": [
        {
          "internalType": "address",
          "name": "_tokenA",
          "type": "address"
        },
        {
          "internalType": "address",
          "name": "_tokenB",
          "type": "address"
        }
      ],
      "stateMutability": "nonpayable",
      "type": "constructor"
    },
    {
      "anonymous": false,
      "inputs": [
        {
          "indexed": true,
          "internalType": "address",
          "name": "user",
          "type": "address"
        },
        {
          "indexed": false,
          "internalType": "uint256",
          "name": "amountA",
          "type": "uint256"
        },
        {
          "indexed": false,
          "internalType": "uint256",
          "name": "amountB",
          "type": "uint256"
        }
      ],
      "name": "LiquidityAdded",
      "type": "event"
    },
    {
      "anonymous": false,
      "inputs": [
        {
          "indexed": true,
          "internalType": "address",
          "name": "user",
          "type": "address"
        },
        {
          "indexed": false,
          "internalType": "uint256",
          "name": "amountA",
          "type": "uint256"
        },
        {
          "indexed": false,
          "internalType": "uint256",
          "name": "amountB",
          "type": "uint256"
        }
      ],
      "name": "LiquidityRemoved",
      "type": "event"
    },
    {
      "anonymous": false,
      "inputs": [
        {
          "indexed": true,
          "internalType": "address",
          "name": "user",
          "type": "address"
        },
        {
          "indexed": false,
          "internalType": "uint256",
          "name": "amountIn",
          "type": "uint256"
        },
        {
          "indexed": false,
          "internalType": "uint256",
          "name": "amountOut",
          "type": "uint256"
        }
      ],
      "name": "Swap",
      "type": "event"
    },
    {
      "inputs": [
        {
          "internalType": "uint256",
          "name": "amountA",
          "type": "uint256"
        },
        {
          "internalType": "uint256",
          "name": "amountB",
          "type": "uint256"
        }
      ],
      "name": "addLiquidity",
      "outputs": [],
      "stateMutability": "nonpayable",
      "type": "function"
    },
    {
      "inputs": [],
      "name": "getReserves",
      "outputs": [
        {
          "internalType": "uint256",
          "name": "",
          "type": "uint256"
        },
        {
          "internalType": "uint256",
          "name": "",
          "type": "uint256"
        }
      ],
      "stateMutability": "view",
      "type": "function"
    },
    {
      "inputs": [
        {
          "internalType": "uint256",
          "name": "amountA",
          "type": "uint256"
        },
        {
          "internalType": "uint256",
          "name": "amountB",
          "type": "uint256"
        }
      ],
      "name": "removeLiquidity",
      "outputs": [],
      "stateMutability": "nonpayable",
      "type": "function"
    },
    {
      "inputs": [],
      "name": "reserveA",
      "outputs": [
        {
          "internalType": "uint256",
          "name": "",
          "type": "uint256"
        }
      ],
      "stateMutability": "view",
      "type": "function"
    },
    {
      "inputs": [],
      "name": "reserveB",
      "outputs": [
        {
          "internalType": "uint256",
          "name": "",
          "type": "uint256"
        }
      ],
      "stateMutability": "view",
      "type": "function"
    },
    {
      "inputs": [
        {
          "internalType": "uint256",
          "name": "amountA",
          "type": "uint256"
        }
      ],
      "name": "swapAforB",
      "outputs": [],
      "stateMutability": "nonpayable",
      "type": "function"
    },
    {
      "inputs": [
        {
          "internalType": "uint256",
          "name": "amountB",
          "type": "uint256"
        }
      ],
      "name": "swapBforA",
      "outputs": [],
      "stateMutability": "nonpayable",
      "type": "function"
    },
    {
      "inputs": [],
      "name": "tokenA",
      "outputs": [
        {
          "internalType": "contract IERC20",
          "name": "",
          "type": "address"
        }
      ],
      "stateMutability": "view",
      "type": "function"
    },
    {
      "inputs": [],
      "name": "tokenB",
      "outputs": [
        {
          "internalType": "contract IERC20",
          "name": "",
          "type": "address"
        }
      ],
      "stateMutability": "view",
      "type": "function"
    }
  ],
  "bytecode": "0x60806040523480156200001157600080fd5b5060405162001a4138038062001a4183398181016040528101906200003791906200012a565b816000806101000a81548173ffffffffffffffffffffffffffffffffffffffff021916908373ffffffffffffffffffffffffffffffffffffffff16021790555080600160006101000a81548173ffffffffffffffffffffffffffffffffffffffff021916908373ffffffffffffffffffffffffffffffffffffffff160217905550505062000171565b600080fd5b600073ffffffffffffffffffffffffffffffffffffffff82169050919050565b6000620000f282620000c5565b9050919050565b6200010481620000e5565b81146200011057600080fd5b50565b6000815190506200012481620000f9565b92915050565b60008060408385031215620001445762000143620000c0565b5b6000620001548582860162000113565b9250506020620001678582860162000113565b9150509250929050565b6118c080620001816000396000f3fe608060405234801561001057600080fd5b50600436106100935760003560e01c80638014a7aa116100665780638014a7aa146101115780639cd441da1461012d5780639d7de6b314610149578063dc5fa6c514610165578063e4f1f70a1461018357610093565b80630902f1ac146100985780630fc63d10146100b757806319e36f3b146100d55780635f64b55b146100f3575b600080fd5b6100a061019f565b6040516100ae929190611299565b60405180910390f35b6100bf6101b0565b6040516100cc9190611341565b60405180910390f35b6100dd6101d4565b6040516100ea919061135c565b60405180910390f35b6100fb6101da565b6040516101089190611341565b60405180910390f35b61012b600480360381019061012691906113a8565b610200565b005b610147600480360381019061014291906113d5565b610714565b005b610163600480360381019061015e91906113d5565b610a3d565b005b61016d610d66565b60405161017a919061135c565b60405180910390f35b61019d600480360381019061019891906113a8565b610d6c565b005b600080600254600354915091509091565b60008054906101000a900473ffffffffffffffffffffffffffffffffffffffff1681565b60035481565b600160009054906101000a900473ffffffffffffffffffffffffffffffffffffffff1681565b60008060009054906101000a900473ffffffffffffffffffffffffffffffffffffffff1673ffffffffffffffffffffffffffffffffffffffff166370a08231306040518263ffffffff1660e01b815260040161025c9190611436565b602060405180830381865afa158015610279573d6000803e3d6000fd5b505050506040513d601f19601f8201168201806040525081019061029d9190611466565b90506000600160009054906101000a900473ffffffffffffffffffffffffffffffffffffffff1673ffffffffffffffffffffffffffffffffffffffff166370a08231306040518263ffffffff1660e01b81526004016102fc9190611436565b602060405180830381865afa158015610319573d6000803e3d6000fd5b505050506040513d601f19601f8201168201806040525081019061033d9190611466565b905060008311610382576040517f08c379a0000000000000000000000000000000000000000000000000000000008152600401610379906114f0565b60405180910390fd5b6000821180156103925750600081115b6103d1576040517f08c379a00000000000000000000000000000000000000000000000000000000081526004016103c89061155c565b60405180910390fd5b600083826103df91906115ab565b83856103eb91906115df565b6103f59190611650565b90506000811161043a576040517f08c379a0000000000000000000000000000000000000000000000000000000008152600401610431906116cd565b60405180910390fd5b600160009054906101000a900473ffffffffffffffffffffffffffffffffffffffff1673ffffffffffffffffffffffffffffffffffffffff166323b872dd3330876040518463ffffffff1660e01b8152600401610499939291906116ed565b6020604051808303816000875af11580156104b8573d6000803e3d6000fd5b505050506040513d601f19601f820116820180604052508101906104dc919061175c565b5060008054906101000a900473ffffffffffffffffffffffffffffffffffffffff1673ffffffffffffffffffffffffffffffffffffffff1663a9059cbb33836040518363ffffffff1660e01b8152600401610538929190611789565b6020604051808303816000875af1158015610557573d6000803e3d6000fd5b505050506040513d601f19601f8201168201806040525081019061057b919061175c565b5060008054906101000a900473ffffffffffffffffffffffffffffffffffffffff1673ffffffffffffffffffffffffffffffffffffffff166370a08231306040518263ffffffff1660e01b81526004016105d59190611436565b602060405180830381865afa1580156105f2573d6000803e3d6000fd5b505050506040513d601f19601f820116820180604052508101906106169190611466565b600281905550600160009054906101000a900473ffffffffffffffffffffffffffffffffffffffff1673ffffffffffffffffffffffffffffffffffffffff166370a08231306040518263ffffffff1660e01b81526004016106779190611436565b602060405180830381865afa158015610694573d6000803e3d6000fd5b505050506040513d601f19601f820116820180604052508101906106b89190611466565b6003819055503373ffffffffffffffffffffffffffffffffffffffff167f77f92a1b6a1a11de8ca49515ad4c1fad45632dd3442167d74b90b304a3c7a7588583604051610706929190611299565b60405180910390a250505050565b6000821180156107245750600081115b610763576040517f08c379a000000000000000000000000000000000000000000000000000000000815260040161075a906117fe565b60405180910390fd5b60008054906101000a900473ffffffffffffffffffffffffffffffffffffffff1673ffffffffffffffffffffffffffffffffffffffff166323b872dd3330856040518463ffffffff1660e01b81526004016107c0939291906116ed565b6020604051808303816000875af11580156107df573d6000803e3d6000fd5b505050506040513d601f19601f82011682018060405250810190610803919061175c565b50600160009054906101000a900473ffffffffffffffffffffffffffffffffffffffff1673ffffffffffffffffffffffffffffffffffffffff166323b872dd3330846040518463ffffffff1660e01b8152600401610863939291906116ed565b6020604051808303816000875af1158015610882573d6000803e3d6000fd5b505050506040513d601f19601f820116820180604052508101906108a6919061175c565b5060008054906101000a900473ffffffffffffffffffffffffffffffffffffffff1673ffffffffffffffffffffffffffffffffffffffff166370a08231306040518263ffffffff1660e01b81526004016109009190611436565b602060405180830381865afa15801561091d573d6000803e3d6000fd5b505050506040513d601f19601f820116820180604052508101906109419190611466565b600281905550600160009054906101000a900473ffffffffffffffffffffffffffffffffffffffff1673ffffffffffffffffffffffffffffffffffffffff166370a08231306040518263ffffffff1660e01b81526004016109a29190611436565b602060405180830381865afa1580156109bf573d6000803e3d6000fd5b505050506040513d601f19601f820116820180604052508101906109e39190611466565b6003819055503373ffffffffffffffffffffffffffffffffffffffff167fac1d76749e5447b7b16f5ab61447e1bd502f3bb4807af3b28e620d1700a6ee458383604051610a31929190611299565b60405180910390a25050565b6002548211158015610a5157506003548111155b610a90576040517f08c379a0000000000000000000000000000000000000000000000000000000008152600401610a879061186a565b60405180910390fd5b60008054906101000a900473ffffffffffffffffffffffffffffffffffffffff1673ffffffffffffffffffffffffffffffffffffffff1663a9059cbb33846040518363ffffffff1660e01b8152600401610aeb929190611789565b6020604051808303816000875af1158015610b0a573d6000803e3d6000fd5b505050506040513d601f19601f82011682018060405250810190610b2e919061175c565b50600160009054906101000a900473ffffffffffffffffffffffffffffffffffffffff1673ffffffffffffffffffffffffffffffffffffffff1663a9059cbb33836040518363ffffffff1660e01b8152600401610b8c929190611789565b6020604051808303816000875af1158015610bab573d6000803e3d6000fd5b505050506040513d601f19601f82011682018060405250810190610bcf919061175c565b5060008054906101000a900473ffffffffffffffffffffffffffffffffffffffff1673ffffffffffffffffffffffffffffffffffffffff166370a08231306040518263ffffffff1660e01b8152600401610c299190611436565b602060405180830381865afa158015610c46573d6000803e3d6000fd5b505050506040513d601f19601f82011682018060405250810190610c6a9190611466565b600281905550600160009054906101000a900473ffffffffffffffffffffffffffffffffffffffff1673ffffffffffffffffffffffffffffffffffffffff166370a08231306040518263ffffffff1660e01b8152600401610ccb9190611436565b602060405180830381865afa158015610ce8573d6000803e3d6000fd5b505050506040513d601f19601f82011682018060405250810190610d0c9190611466565b6003819055503373ffffffffffffffffffffffffffffffffffffffff167f96cd817c6329656790ef8fba7675405193677d39619571282f5e21f3a98cd0598383604051610d5a929190611299565b60405180910390a25050565b60025481565b60008060009054906101000a900473ffffffffffffffffffffffffffffffffffffffff1673ffffffffffffffffffffffffffffffffffffffff166370a08231306040518263ffffffff1660e01b8152600401610dc89190611436565b602060405180830381865afa158015610de5573d6000803e3d6000fd5b505050506040513d601f19601f82011682018060405250810190610e099190611466565b90506000600160009054906101000a900473ffffffffffffffffffffffffffffffffffffffff1673ffffffffffffffffffffffffffffffffffffffff166370a08231306040518263ffffffff1660e01b8152600401610e689190611436565b602060405180830381865afa158015610e85573d6000803e3d6000fd5b505050506040513d601f19601f82011682018060405250810190610ea99190611466565b905060008311610eee576040517f08c379a0000000000000000000000000000000000000000000000000000000008152600401610ee5906114f0565b60405180910390fd5b600082118015610efe5750600081115b610f3d576040517f08c379a0000000000000000000000000000000000000000000000000000000008152600401610f349061155c565b60405180910390fd5b60008383610f4b91906115ab565b8285610f5791906115df565b610f619190611650565b905060008111610fa6576040517f08c379a0000000000000000000000000000000000000000000000000000000008152600401610f9d906116cd565b60405180910390fd5b60008054906101000a900473ffffffffffffffffffffffffffffffffffffffff1673ffffffffffffffffffffffffffffffffffffffff166323b872dd3330876040518463ffffffff1660e01b8152600401611003939291906116ed565b6020604051808303816000875af1158015611022573d6000803e3d6000fd5b505050506040513d601f19601f82011682018060405250810190611046919061175c565b50600160009054906101000a900473ffffffffffffffffffffffffffffffffffffffff1673ffffffffffffffffffffffffffffffffffffffff1663a9059cbb33836040518363ffffffff1660e01b81526004016110a4929190611789565b6020604051808303816000875af11580156110c3573d6000803e3d6000fd5b505050506040513d601f19601f820116820180604052508101906110e7919061175c565b5060008054906101000a900473ffffffffffffffffffffffffffffffffffffffff1673ffffffffffffffffffffffffffffffffffffffff166370a08231306040518263ffffffff1660e01b81526004016111419190611436565b602060405180830381865afa15801561115e573d6000803e3d6000fd5b505050506040513d601f19601f820116820180604052508101906111829190611466565b600281905550600160009054906101000a900473ffffffffffffffffffffffffffffffffffffffff1673ffffffffffffffffffffffffffffffffffffffff166370a08231306040518263ffffffff1660e01b81526004016111e39190611436565b602060405180830381865afa158015611200573d6000803e3d6000fd5b505050506040513d601f19601f820116820180604052508101906112249190611466565b6003819055503373ffffffffffffffffffffffffffffffffffffffff167f77f92a1b6a1a11de8ca49515ad4c1fad45632dd3442167d74b90b304a3c7a7588583604051611272929190611299565b60405180910390a250505050565b6000819050919050565b61129381611280565b82525050565b60006040820190506112ae600083018561128a565b6112bb602083018461128a565b9392505050565b600073ffffffffffffffffffffffffffffffffffffffff82169050919050565b6000819050919050565b60006113076113026112fd846112c2565b6112e2565b6112c2565b9050919050565b6000611319826112ec565b9050919050565b600061132b8261130e565b9050919050565b61133b81611320565b82525050565b60006020820190506113566000830184611332565b92915050565b6000602082019050611371600083018461128a565b92915050565b600080fd5b61138581611280565b811461139057600080fd5b50565b6000813590506113a28161137c565b92915050565b6000602082840312156113be576113bd611377565b5b60006113cc84828501611393565b91505092915050565b600080604083850312156113ec576113eb611377565b5b60006113fa85828601611393565b925050602061140b85828601611393565b9150509250929050565b6000611420826112c2565b9050919050565b61143081611415565b82525050565b600060208201905061144b6000830184611427565b92915050565b6000815190506114608161137c565b92915050565b60006020828403121561147c5761147b611377565b5b600061148a84828501611451565b91505092915050565b600082825260208201905092915050565b7f496e76616c696420616d6f756e74000000000000000000000000000000000000600082015250565b60006114da600e83611493565b91506114e5826114a4565b602082019050919050565b60006020820190508181036000830152611509816114cd565b9050919050565b7f4e6f206c69717569646974790000000000000000000000000000000000000000600082015250565b6000611546600c83611493565b915061155182611510565b602082019050919050565b6000602082019050818103600083015261157581611539565b9050919050565b7f4e487b7100000000000000000000000000000000000000000000000000000000600052601160045260246000fd5b60006115b682611280565b91506115c183611280565b92508282019050808211156115d9576115d861157c565b5b92915050565b60006115ea82611280565b91506115f583611280565b925082820261160381611280565b9150828204841483151761161a5761161961157c565b5b5092915050565b7f4e487b7100000000000000000000000000000000000000000000000000000000600052601260045260246000fd5b600061165b82611280565b915061166683611280565b92508261167657611675611621565b5b828204905092915050565b7f496e73756666696369656e74206f757470757400000000000000000000000000600082015250565b60006116b7601383611493565b91506116c282611681565b602082019050919050565b600060208201905081810360008301526116e6816116aa565b9050919050565b60006060820190506117026000830186611427565b61170f6020830185611427565b61171c604083018461128a565b949350505050565b60008115159050919050565b61173981611724565b811461174457600080fd5b50565b60008151905061175681611730565b92915050565b60006020828403121561177257611771611377565b5b600061178084828501611747565b91505092915050565b600060408201905061179e6000830185611427565b6117ab602083018461128a565b9392505050565b7f496e76616c696420616d6f756e74730000000000000000000000000000000000600082015250565b60006117e8600f83611493565b91506117f3826117b2565b602082019050919050565b60006020820190508181036000830152611817816117db565b9050919050565b7f496e73756666696369656e742072657365727665730000000000000000000000600082015250565b6000611854601583611493565b915061185f8261181e565b602082019050919050565b6000602082019050818103600083015261188381611847565b905091905056fea26469706673582212209e6b00d6a67c7b2a5cc7ab8da66149247373c9c7eef6698ffa82e15e2947524e64736f6c63430008140033",
  "linkReferences": {},
  "deployedLinkReferences": {}
}